:020000040000FA
:06000000020DC00203CB5B
:03002B00020B22A3
:030033000209BE01
:030053000202FAAC
:1000830002035C01010000000000F8FF07FFFF000E
:10009300000504000000030001FF18102700007F83
:1000A3000020FD000206FFFF1E7F21003200320008
:1000B300000000000000000000000201000008161C
:1000C3000000000000000000000000000000040227
:1000D300FFFFFF0003000000000A0000000001040E
:1000E30006000104010C000208EE80000000010478
:1000F3000000B515000000E8030000FFFF061688A6
:10010300130000E803000064006400B801A0BB0D05
:1001130000A0BB0D000202020704010A1E02051E15
:10012300020A0A010108080103B80B02803E01021A
:10013300FEFFE8030A050001FFFF020A011401E0C4
:10014300050301010F030003000300030003000381
:100153000003000300030005000A00140028004FF9
:10016300009E000000272800000000FB260000007E
:1001730000FF000000FF0000120DD0604F120DDFE2
:100183006012E7548066F6120C9B7011120E6D70AC
:100193003B090909F4F618F618F618F622120CAF03
:1001A3007015120E7608080860EAE6447FF61876A2
:1001B3008018E4F618F622120E766016120E6D7091
:1001C30012E4F608F608F608E65480F60909091859
:1001D300181822EAC0E0EBC0E0ECC0E0EDC0E0E6B6
:1001E30087F0A4FBACF008E687F0A42CFCE435F020
:1001F300FA1809E687F0A42C4B60027401CA35F0A3
:10020300FCE433FB09E687F0D2F7A42CCB35F0FCF2
:100213001908E687F0A42BCC35F0FBE433FD08196D
:10022300E687F0D2E7A42C4ACB35F0CD3400FC09A5
:10023300E687F0D2E7A42DCC35F0FDE433FA0918B4
:10024300E687F0D2F7A42CCD35F0CA3400FC08E6DB
:1002530087F0D2E7D2F7A42ACC35F07A7E20E70BD9
:100263000ACB33CBCD33CDCC33CC33CB335014701B
:1002730004ED30E00ED2F1E4CD3DCDCC3CCC3B508F
:1002830005DA05C2F1EB547FC63308E63392F0FB7F
:10029300E73309E733C39A502D2B70190C0D4C4DDE
:1002A30070151806E608C333700D20F10AA2F01387
:1002B300F6E418800B4024E4F630F002768018F65A
:1002C30018F618F68024D33B14501074FFA2F013D1
:1002D300F6187680E418F618F6800FA2F013F618D5
:1002E300E63303F618ECF618EDF6D0E0FDD0E0FCAB
:1002F300D0E0FBD0E0FA22C0E074F11206E4A2AF32
:10030300E433F509D2AF85A708AFA1EF5508FE7412
:10031300105E600612107475A1EF74085E60081217
:10032300107A75A1F78024EFA2E092F0E508A2E02D
:1003330082F05017906198E0F8900579E0C398A295
:10034300D265D0335002E8F075A1FE752300E509AC
:10035300A2E092AF7F020207A0C0E074F21206E4AB
:10036300A2AFE433FED2AF9061A4E0F8759B00E541
:100373009158540860087591F71210C88023E591CD
:1003830058541060087591EF1210CE8014E591A2B5
:10039300E092F0E8A2E082F05007E0C2E0F012122F
:1003A300249061A3E0F8E5E9585404600E1211FAB1
:1003B30075E9FB906193E0A2E640F2752300EEA29B
:1003C300E092AF7F010207A0C0E074F21206E4A23C
:1003D300AFE433FED2AF9061A5E0F8E5BF58540413
:1003E300600675BFFB12123C80D1C3E498F8E49910
:1003F300F912042E8026C3E49AFAE49BFBE920E772
:10040300E912042EE498F8E499F922C3E498F8E495
:1004130099F912042EE498F8E499F9C3E49AFAE4FA
:100423009BFB22EB20E7CFE920E7E0B90010BB00FC
:1004330008E88AF084F8AAF022E4FBC8FA22EB70F9
:10044300227B10C833C8C933C9335007C39AC3DBEF
:10045300F280069A50012ADBEAC833F4C8C933F4A0
:10046300C9FA2275F008E4C833C8C933C933C99A35
:10047300C99B5004C92AC93BD5F0ECFBC833F4C867
:10048300E4C9FA221204D230F0391205178034126B
:1004930004D220F01430E72B74FFFCFBFA747F8046
:1004A30022E4FCFBFA7480801AB48008BC00F2BB1F
:1004B30000EF800F50EBF9E4C39AFAE49BFBE49C52
:1004C300FCE499C6CC18C6CB18C6CA18C6F922E4F0
:1004D300C9C608CAC608CBC6D3330308CCC63392F1
:1004E300F0C3947F402E94184019C9B90704CACBAE
:1004F300CC225025C309CA33CACB33CBCC33CC333C
:10050300D9F422F4600DC9CCC313CB13CBCA13CADD
:10051300D9F6CC22E4FCFBFA2214FCFBFA220808ED
:1005230008EAC0E0EBC0E086F0E7A4FA180986F019
:10053300E7A42AFA180986F0E7A42AFA180986F02C
:10054300E7A42AFA1986F0E7A4FBE5F02AFA1908CA
:1005530086F0E7A42BFBE5F03AFA190886F0E7A446
:100563002BFBE5F03AFA18180986F0E7A4C5F02B3F
:10057300FBE43AFA1908E7C5F0C6A426F6E5F03B12
:10058300FBE43AFA1886F0E7A4F6E5F00826F6E469
:100593003B08F6E43A08F6D0E0FBD0E0FA22E4CFD9
:1005A300C0E0E4CEC0E0E4CDC0E0E4CCC0E075F050
:1005B30020E626F608E633F608E633F608E633F6D1
:1005C300181818EC33FCED33FDEE33FEEF33FFC3A5
:1005D300EC9709ED9709EE9709EF97191919400F51
:1005E300FFEC97FC09ED97FD09EE97FE191906D567
:1005F300F0BFECF709EDF709EEF709EFF719191951
:10060300D0E0FCD0E0FDD0E0FED0E0FF222521C504
:1006130082C0E0E52234FFC583C0E0E521C39582B3
:1006230024F810AF088583228582218008858322E0
:10063300858221D2AFCEF0A3E520F0A37808E608A7
:10064300F0A3DEFAEFF0A3E58124FAF8E608F0A3BD
:10065300E608F0A3E608F0A30808E608F0A3E60816
:10066300F0A315811581D0E0FED0E0F81581158146
:100673001581E8C0E0EEC0E022120E58B900030273
:1006830006CEE490050178A279148002F0A3D8FC89
:10069300D9FA78239000867A01BA00028007E4939E
:1006A300A3F608DAF97AA27B1890008778F4790127
:1006B3008015E493A3AD82AE838A828B83F0A3AAD1
:1006C30082AB838D828E83D8E9D9E775826A75837D
:1006D300BA7404120B047582367583247400120BEA
:1006E30004C0D02521C582C0E0E52234FFC583C004
:1006F300E0E521C3958224F310AF08858322858228
:10070300218008858322858221D2AFC8F0A3E9F036
:10071300A3EAF0A3EBF0A37908E709F0A3D8FAEC76
:10072300F0A3EDF0A3EEF0A3EFF0A3D0E0F0A3D09D
:10073300E0F0A3D0E0F0A3E520F0A3E5F0F0A322DE
:10074300E9799EC608CAC608CBC608CCC6C37020C2
:100753007996CACBCC7019798ECBCC70137986CCB1
:10076300700EF9802ACA33CACB33CBCC33CC3319BE
:1007730030E7F2CCCBCA3350147004EA30E00DE416
:10078300CA3ACACB3BCBCC3CCC500209C3E913C613
:10079300CC182313C6CB18C6CA18C6F922852283E0
:1007A300852182E0C0E0A3E0F9A3E0FAA3E0FBA384
:1007B3007808E0F608A3DFFAE0FCA3E0FDA3E0FE7F
:1007C300A3E0FFA3E0C0E0A3E0C0E0A3E0F5D0A373
:1007D300E0F520A3E0A3F5F010AF0885832285821E
:1007E300218008858322858221D2AFD082D083D015
:1007F300E0F8D0E03275F0108E248F2585822985AC
:100803008328852182852283E0CEA3E0CF852982B8
:10081300852883EBC9EAC8EDCBECCAC3E833C8E942
:1008230033C9EA33CAEB33CBC3EA9EF527EB9FF513
:1008330026B35004AB26AA27EC33CCED33CDD5F049
:10084300DAAE24AF2522D083D082ECC0E0EDC0E045
:10085300E493A3FCE493A3FDED4C600D120921EC9A
:1008630024FFFCED34FFFD80EFE493A3FCE493A3AA
:10087300FDED4C600D1209E9EC24FFFCED34FFFDA6
:1008830080EFD0E0FDD0E0FCE493A3C0E0E493C0AC
:10089300E022852283852182E0A3FEE0A3F5207870
:1008A30008E0A3F608DFFAE0A3FFE0A3C0E0E0A3BB
:1008B300C0E0E0A3C0E0E0A3C0E0E0A3C0E010AF6D
:1008C300088582218583228008858221858322D21F
:1008D300AFD083D082020B0AD083D082E9C0E0E498
:1008E30093A3C386F0C5F095F0F908E493A386F0CB
:1008F300C5F095F0700BE493A3C3994005E9048018
:1009030002A3E475F002A42582F582E5F03583F5B0
:1009130083D0E0F9E493A3C0E0E493C0E022C0E015
:10092300C3E49396087401939618400FE49366709A
:100933000808740193661870007019A3A3C3E493A5
:1009430096087401939618A3A3400DD0E0D0E0D08D
:10095300E0020885A3A3A3A3A3A3D0E02274048089
:100963000474028000CCC0E0EDC0E0E521C39CCC60
:10097300AD2250011D10AF068C218D2280068C21E3
:100983008D22D2AF120A86D0E0FDD0E0FC227402A1
:100993008000CCC0E0EDC0E0E521C39CCCAD22508B
:1009A300011D10AF068C218D2280068C218D22D251
:1009B300AF120A64D0E0FDD0E0FC22C0E074F21272
:1009C30006E4A2AFE433FED2AFE58BA2E050057993
:1009D30004120FCC758B00C2E8752300EEA2E092DF
:1009E300AF7F010207A0C0E0C0F088F0E493667017
:1009F300080874019366187000A8F0A3A3700BD0C5
:100A0300F0D0E0D0E0D0E0020885A3A3D0F0D0E09E
:100A130022D083D082CCC0E0E493A36006120AC63E
:100A23001470FAE493A36006120BF31470FAD0E087
:100A3300FCE493A3C0E0E493C0E022C008C3E096C3
:100A4300F50808A3E096420808A3E096420808A325
:100A5300E0964208A2D265D033E5087001D3D008EE
:100A630022CAC0E0E493A3C582CCC582C583CDC5A9
:100A730083F0A3C582CCC582C583CDC583DAE5D017
:100A8300E0CA22CAC0E0E0A3C582CCC582C583CD3B
:100A9300C583F0A3C582CCC582C583CDC583DAE601
:100AA300D0E0CA227009080808226016181818C670
:100AB300C333C608C633C608C633C608C633C6D54D
:100AC300E0EA22C0E0E493A3D39C5010E493A3C3D1
:100AD3009C400AD0E0D0E0D0E0020A31A3A3A3D027
:100AE300E022C008C3E096F50808A3E09642080890
:100AF300A3E096420808A3E09645087001D3D00806
:100B030022C09FF59FE473D09F22D083D082C09FE1
:100B1300E493C0E0740193C0E0740293F59F22C094
:100B2300E0C0D0E8C0E0A8A8D2AFC2C7752300E8F0
:100B3300A2E792AFD0E0F8D0D0D0E0327404800ABC
:100B430074038006740280027401C0E0F404120B83
:100B530075D0E0120E1B2200C0D0252110AF08F57E
:100B630021500C05228008F52150020522D2AFD076
:100B7300D0222521F58210AF08F521400C152280E3
:100B830008F52140021522D2AF85228322BB010240
:100B9300E722C082C08389828A83BB0003E080028C
:100BA300E493D083D082226016080808C6C313C614
:100BB30018C613C618C613C618C613C6D5E0EA224C
:100BC300C3E0C696F608A3E0C696F608A3E0C69669
:100BD300F608A3E0C696F6222521F8E43522F92289
:100BE3002521FAE43522FB222521FCE43522FD22CE
:100BF300C0E0E493A36C7009D0E0D0E0D0E0020A37
:100C030031A3A3D0E022252110AF08F521400C1514
:100C1300228008F52140021522D2AF22E06670102F
:100C230008A3E066700A08A3E066700408A3E06600
:100C330022E76670100809E766700A0809E766701C
:100C4300040809E76622C3E7960809E7960809E757
:100C5300960809E796A2D265D03322C3E09608A38B
:100C6300E09608A3E09608A3E096A2D265D03322CB
:100C7300C3E49396087401939608740293960874D8
:100C830003939622C3E697F60809E697F60809E662
:100C930097F60809E697F622181818E6084608702A
:100CA30009E626087005E633F4220822191919E724
:100CB3000947097009E727097005E733F422092278
:100CC300C3E096F008A3E096F008A3E096F008A32B
:100CD300E096F022E026F008A3E036F008A3E03621
:100CE300F008A3E036F022700422600D18C6C33367
:100CF300C608C633C6D5E0F41822E627F60809E687
:100D030037F60809E637F60809E637F622E026F64D
:100D130008A3E036F608A3E036F608A3E036F62289
:100D2300E056F008A3E056F008A3E056F008A3E06D
:100D330056F022E657F60809E657F60809E657F68D
:100D43000809E657F622E647F60809E647F60809D2
:100D5300E647F60809E647F622E056F608A3E0560A
:100D6300F608A3E056F608A3E056F622E4C396F687
:100D730008E496F608E496F608E496F622600D0871
:100D8300C6A2E713C618C613C6D5E0F322C6F4C637
:100D930008C6F4C608C6F4C608C6F4C622C3E0965D
:100DA30008A3E09608A3E09608A3E09622C3E7967B
:100DB3000809E7960809E7960809E7962275D0001F
:100DC30075813F7521017522050002067CE6084600
:100DD30008C3134608336002E633F422E7094709E0
:100DE300C3134709336002E733F422600C08C6C318
:100DF30013C618C613C6D5E0F422E6F008A3E6F03E
:100E030008A3E6F008A3E6F022E0F608A3E0F6085C
:100E1300A3E0F608A3E0F622CAC0E0E6F0A308DAEE
:100E2300FAD0E0FA22E0FAA3E0FBA3E0FCA3E0FDA2
:100E330022EAF0A3EBF0A3ECF0A3EDF022E0F8A399
:100E4300E0F9A3E0FAA3E0FB22E8F0A3E9F0A3EAC8
:100E5300F0A3EBF022E5C754F84401F5C77901226A
:100E63002521F582E43522F58322E727194719471F
:100E7300194722E62618461846184622C2AF75D6E9
:100E83009F02000022120B0D00DB03120B0D4CDB43
:100E930003120B0DDEDB03120B0DB7DC03120B0D7C
:100EA30013DD03120B0D71DD03120B0DE4DD0312D1
:100EB3000B0D28DE03120B0D80DE03120B0DA2DED9
:100EC30003120B0D32DF03120B0DC3DF03120B0DE5
:100ED3000FE003120B0D3BE003120B0D7CE003123A
:100EE3000B0D1BE203120B0DFDE203120B0DD2E3FC
:100EF30003120B0D33AF04120B0D5EAF04120B0D77
:100F030079AF04120B0D9EAF04120B0D44B0041203
:100F13000B0D6AB004120B0D2FB104120B0D59B156
:100F230004120B0DB9FF03120B0DD6FF03120B0DA9
:100F330094AC04120B0DDDAC04120B0D12AD0412B4
:100F43000B0D1AAD04120B0D83AD04120B0DA1ADE5
:100F530004120B0D39B604120B0DF6B604120B0D69
:100F6300DBB704120B0D13C404120B0D24C40412BB
:100F73000B0DC2C404120B0DCDC404120B0DE7C438
:100F830004120B0DFBFF01120B0D38C904120B0DDC
:100F9300F6C404120B0D06C504120B0D18C504127A
:100FA3000B0DCAC504120B0D20C104120B0DA4C1F5
:100FB30004120B0D0CC204120B0D25C304120B0DEE
:100FC30072C304120B0D7BC304120B0DA2C30412D4
:100FD3000B0DEAC304120B0D01C404120B0DF07FB9
:100FE30000120B0DF37F00120B0DF87F00120B0D97
:100FF3005DB804120B0D95B804120B0DE3B904127E
:101003000B0D67BA04120B0DADFA03120B0DD9FACF
:1010130003120B0D43FD03120B0D83FD03120B0D86
:10102300BFFD03120B0DD3FD03120B0DECFD0312D9
:101033000B0DDEFE03120B0D91FF03120B0DA5FF2B
:1010430003120B0D3C7E00120B0D607E00120B0D84
:10105300797E00120B0DB77E00120B0DE77E001296
:101063000B0D147F00120B0D1E7F00120B0D847FDE
:1010730000120B0D877F00120B0D917F00120B0DD9
:101083009E7F00120B0DEDA904120B0D0DAA041285
:101093000B0D4CAA04120B0D6AAA04120B0D85AAA0
:1010A30004120B0DEBAA04120B0DF7AA04120B0D7D
:1010B30054AB04120B0D63AB04120B0D87AB04127C
:1010C3000B0D48AC04120B0D55AC04120B0D66ACA2
:1010D30004120B0D22C704120B0D6AC704120B0D69
:1010E30096C704120B0D579304120B0DB1940412FF
:1010F3000B0DBF9404120B0DD29404120B0DE79445
:1011030004120B0DFC9404120B0D0F9504120B0D1E
:101113008B9504120B0DF09504120B0D78960412A7
:101123000B0DF09604120B0DC99704120B0DD997F2
:1011330004120B0DE89704120B0D89C604120B0D54
:10114300ADC604120B0DD5C604120B0DFDC6041259
:101153000B0DA6B104120B0DCDB104120B0DEBB1A7
:1011630004120B0D5AB204120B0D1AA704120B0D25
:1011730033A704120B0D3FA704120B0D53A7041240
:101183000B0D71A704120B0D7BA704120B0D85A782
:1011930004120B0D98A704120B0D1EA804120B0DBD
:1011A30093A804120B0DC2A804120B0D10A904126C
:1011B3000B0D5FA904120B0D7AA904120B0D84A960
:1011C30004120B0D95A904120B0DD8A904120B0DD3
:1011D30016C804120B0D61C804120B0D9889041272
:1011E3000B0DC48904120B0DE18904120B0DF48954
:1011F30004120B0D0F8A04120B0D698A04120B0DD6
:10120300978A04120B0DA78E04120B0D059004127E
:101213000B0D379004120B0D9A9004120B0D0692CE
:1012230004120B0D2E9204120B0D439204120B0D9C
:10123300539204120B0D939204120B0DD5920412C8
:101243000B0DE59204120B0DEABE04120B0D04BF45
:1012530004120B0D2CBF04120B0D45BF04120B0D12
:1012630069BF04120B0D87BF04120B0D9EBF04123E
:101273000B0DCCBF04120B0DE7BF04120B0DD0C531
:1012830004120B0D14C604120B0DCCFB01120B0D33
:10129300DCFB01120B0DE1FC01120B0D13FD01121E
:1012A3000B0D43FD01120B0D66FD01120B0D7DFDB0
:1012B30001120B0DB7FD01120B0D1CFE01120B0DDC
:1012C3005EFE01120B0DA5FE01120B0DD2FE0112E3
:1012D3000B0DFDFE01120B0D54BC04120B0D66BC6D
:1012E30004120B0D7ABD04120B0D7DBD04120B0D00
:1012F3001AC004120B0D50C004120B0D68C0041267
:101303000B0DAAC004120B0DBAC004120B0DFEC0C4
:1013130004120B0D08C104120B0D457700120B0DBF
:10132300887700120B0DED7700120B0D0C7800126D
:101333000B0DAE7800120B0DB77800120B0D087968
:1013430000120B0D317900120B0D3E7900120B0DBB
:10135300B07900120B0D3E7A00120B0D837A001246
:101363000B0DBC7A00120B0D217B00120B0D4A7B77
:1013730000120B0DC17B00120B0D107C00120B0D24
:101383004D7C00120B0D827C00120B0D947C00121D
:101393000B0DA67C00120B0DC57C00120B0DCE7C31
:1013A30000120B0D8F7D00120B0DD27D00120B0D61
:1013B300107E00120B0DC5C804120B0DAABD04123A
:1013C3000B0DFBB304120B0D31B404120B0D79B4E6
:1013D30004120B0DD2B504120B0DBDC203120B0D7B
:1013E300E3C303120B0D1FC403120B0DDDC5031260
:1013F3000B0D0BC603120B0D75C803120B0DB5C8ED
:1014030003120B0D57CA03120B0DEDCA03120B0D7A
:1014130047CB03120B0DD7CB03120B0D1BCC0312BF
:101423000B0D5DCC03120B0DC2CD03120B0D42CF7E
:1014330003120B0D83D103120B0DB1D103120B0D4C
:10144300DDD103120B0DE6D103120B0D43D20312B0
:101453000B0DDCD203120B0DF3D503120B0D79D652
:1014630003120B0D55FF01120B0D6DFF01120B0D36
:1014730077FF01120B0DCDFF01120B0D939C04128C
:101483000B0DA99C04120B0D4A9D04120B0D899D93
:1014930004120B0DA69D04120B0DD79D04120B0D08
:1014A300249E04120B0D589E04120B0D939E0412DE
:1014B3000B0D90A004120B0DF6A004120B0D25C208
:1014C30004120B0D84C204120B0DC2C204120B0DC5
:1014D30003C304120B0D6DC804120B0D008002121E
:1014E3000B0D0C8002120B0D6E8002120B0D788017
:1014F30002120B0D078102120B0D438102120B0D19
:10150300018202120B0D5E8202120B0DF482021293
:101513000B0D458302120B0DC38302120B0D7F8546
:1015230002120B0D798702120B0DB78802120B0DF5
:10153300038A02120B0DA98A02120B0D668F021287
:101543000B0D619002120B0DF79002120B0D2791F8
:1015530002120B0DC49102120B0DE19102120B0D3D
:10156300019202120B0D6F9202120B0D8C9202125A
:101573000B0DBA9202120B0D5A9402120B0D7B94AF
:1015830002120B0D219502120B0D699502120B0D20
:10159300C79502120B0D6A9602120B0DCF9602121B
:1015A3000B0D389702120B0D749702120B0D229834
:1015B30002120B0D989802120B0DD39802120B0D09
:1015C3004A9902120B0D8F9A02120B0D1A9C0212EA
:1015D3000B0DB39C02120B0D049F02120B0D699F9E
:1015E30002120B0D979F02120B0DD0A402120B0DCA
:1015F3007FA702120B0D7FA802120B0D58ED0212EA
:101603000B0D2CEF02120B0D89F102120B0D93F14E
:1016130002120B0DB3F102120B0DD6F202120B0DD7
:10162300C5F402120B0D93F602120B0DDCF7021236
:101633000B0D25F902120B0DA5F902120B0DF2FA8F
:1016430002120B0D4BFB02120B0D69FB02120B0D69
:10165300A87F00120B0D8BFC02120B0D4AFD021228
:101663000B0DB0FD02120B0D5FFE02120B0D57ADF9
:1016730003120B0D86AD03120B0DFEAD03120B0D02
:101683000DAF03120B0D69AF03120B0DD6B003128E
:101693000B0DF2B003120B0D44B103120B0D87B106
:1016A30003120B0D9AB103120B0DF2B103120B0DC2
:1016B300B4B203120B0D30B303120B0D67B3031255
:1016C3000B0D9FB303120B0D31B503120B0D10B6A7
:1016D30003120B0D5EB703120B0D41B803120B0D72
:1016E300CDB803120B0D0DB903120B0D2CB9031258
:1016F3000B0D77B903120B0D97B903120B0D30BA0B
:1017030003120B0DB6BA03120B0D11BB03120B0D13
:1017130051BB03120B0DE7BD03120B0D00BF0312E8
:101723000B0D46BF03120B0D70C003120B0D98C0B7
:1017330003120B0D9BC003120B0DA5C003120B0D5F
:10174300C1C003120B0D3BC103120B0D74C1031275
:101753000B0DA0C103120B0DC7C103120B0DEBC17F
:1017630003120B0D5CC203120B0D6FC203120B0DA0
:101773009EC203120B0D99C704120B0DA5C70412C9
:101783000B0DD9C704120B0DF8FF01120B0D3F9778
:1017930003120B0D629703120B0DA79803120B0D87
:1017A300F09803120B0D5C9903120B0DBA990312F7
:1017B3000B0DBD9903120B0D0E9A03120B0D839A99
:1017C30003120B0D089B03120B0D0B9B03120B0D46
:1017D3008C9B03120B0DCD9B03120B0DB99F0312B0
:1017E3000B0D63A103120B0DB3A103120B0D42A545
:1017F30003120B0D75A603120B0DCAA703120B0DD3
:1018030067A803120B0D52A903120B0DB5AB0312FC
:101813000B0D02EC01120B0DACEC01120B0D17EDCD
:1018230001120B0D32ED01120B0DB7ED01120B0D71
:1018330011EE01120B0D58EE01120B0DBFEE01124A
:101843000B0D3EF001120B0D6DF101120B0DF5F1B5
:1018530001120B0DFEF301120B0DABF401120B0D74
:1018630081F501120B0D3CF701120B0DD4F8011297
:101873000B0D67F901120B0D8DFA01120B0D25D219
:1018830002120B0D0C8604120B0DD0D202120B0D9B
:1018930014D302120B0D6FD302120B0DCCD3021211
:1018A3000B0D07D402120B0D89D402120B0DE3D4D6
:1018B30002120B0D61D602120B0DE1D602120B0DB3
:1018C3003CD702120B0D56D702120B0D77D702121B
:1018D3000B0DD1D702120B0D4DDA02120B0D6CDA80
:1018E30002120B0D5CDB02120B0D8FDC02120B0DCF
:1018F3000EDD02120B0D4ADD02120B0D7BDA031211
:101903000B0D6EDE02120B0D46E002120B0D4DE1C4
:1019130002120B0DC5E202120B0DBBE402120B0DFA
:1019230031E702120B0D0BE902120B0DCCE9021287
:101933000B0D44EA02120B0D5BEA02120B0D52EB84
:1019430002120B0D46EC02120B0DB5EC02120B0D3D
:1019530028A404120B0D7FA504120B0D3EA604123E
:101963000B0DA6A604120B0D03A104120B0D1EA151
:1019730004120B0D62A104120B0D88A104120B0DAE
:10198300AFA104120B0DC7A104120B0D69A204121F
:101993000B0D7EA204120B0DA1A304120B0DAAA31F
:1019A30004120B0DB3A304120B0DBCA304120B0DF5
:1019B300C6A304120B0D199804120B0D259C0412D7
:1019C3000B0D2A9C04120B0D2C9C04120B0DE1BA77
:1019D30004120B0D1AC904120B0DD1FF02120B0DC9
:1019E3006CAC02120B0D9FAC02120B0D0BAD02126D
:1019F3000B0DA6AD02120B0D43AE02120B0D88AEFA
:101A030002120B0DAAAE02120B0DC3AE02120B0D86
:101A1300E9AE02120B0D0BAF02120B0D49AF02120E
:101A23000B0D8DAF02120B0DAFAF02120B0D11B0E8
:101A330002120B0DD8B002120B0D8FB102120B0D57
:101A430001B202120B0DCCB202120B0D1FB3021224
:101A53000B0D85B302120B0DBFB302120B0D11B4A4
:101A630002120B0D7FB402120B0DEAB402120B0D1E
:101A7300EDB402120B0D6EB502120B0D05B6021278
:101A83000B0D85B602120B0DA4B602120B0D08B88E
:101A930002120B0D15B802120B0D21B902120B0D18
:101AA3002EB902120B0D37B902120B0D0FBB021226
:101AB3000B0D29BC02120B0DA2BC02120B0D14BD9F
:101AC30002120B0D36BD02120B0DCABD02120B0D15
:101AD3009EBF02120B0D75C302120B0D89C30212B6
:101AE3000B0D99C302120B0DA3C302120B0DACC352
:101AF30002120B0DB5C302120B0DBFC302120B0D65
:101B0300ECC302120B0D15C402120B0D20C40212FA
:101B13000B0D44C402120B0D68C402120B0DD2C488
:101B230002120B0D18C502120B0D35C502120B0D57
:101B3300B2C502120B0DE9C502120B0D28C6021223
:101B43000B0D75C602120B0DFBC602120B0DC9C895
:101B530002120B0D4CC902120B0D30CA02120B0DEF
:101B630097CC02120B0DF0CC02120B0D3ACD0212E0
:101B73000B0D95CE02120B0DCACE02120B0D1CCF0C
:101B830002120B0DD1CF02120B0D80D002120B0DDE
:101B9300BDD002120B0D52D102120B0DBED1021297
:101BA3000B0D882A00120B0DBA2A00120B0DE82A1E
:101BB30000120B0DBE2C00120B0D9E2D00120B0DEF
:101BC300F62D00120B0D312F00120B0D7D2F00127D
:101BD3000B0DA63200120B0D993500120B0DE936D1
:101BE30000120B0D7F3700120B0D8B3700120B0DFC
:101BF300BD3700120B0D403900120B0DF13A0012E4
:101C03000B0D853B00120B0DC83B00120B0D463C20
:101C130000120B0D633C00120B0D933C00120B0DD5
:101C2300C83C00120B0D983D00120B0D413E0012F3
:101C33000B0DC74000120B0DE74100120B0DD242F2
:101C430000120B0D544300120B0D884700120B0DAD
:101C5300C54700120B0D1D4800120B0D5048001212
:101C63000B0DBA4800120B0DF04800120B0D7B4907
:101C730000120B0DD34900120B0DAA4A00120B0DD3
:101C8300634B00120B0DFE4B00120B0D064F00129F
:101C93000B0D225000120B0DC55300120B0DB9543E
:101CA30000120B0DBC5400120B0DEB5400120B0D64
:101CB300F15600120B0DCA5700120B0D0D580012EE
:101CC3000B0D635900120B0DA25900120B0D2B5A69
:101CD30000120B0D5F5A00120B0D245B00120B0D4B
:101CE3003C5D00120B0DAD5D00120B0DED5D00129E
:101CF3000B0D7B5E00120B0D9D5F00120B0D5F60E1
:101D030000120B0D666200120B0D7E6200120B0DAA
:101D1300926200120B0DCA6200120B0DF8620012E0
:101D23000B0D776400120B0D9C6500120B0DF9650A
:101D330000120B0DAB6600120B0DD26600120B0DD9
:101D4300996700120B0D316800120B0D576A0012D0
:101D53000B0D8C6A00120B0DEF6A00120B0D1E6C3B
:101D630000120B0DC66C00120B0DF76C00120B0D5D
:101D73000F6D00120B0D9E6D00120B0D52700012B1
:101D83000B0D2A7200120B0D467200120B0D6272BC
:101D930000120B0D307300120B0D237700120B0D85
:101DA300208201120B0D528201120B0D418601128A
:101DB3000B0D8D8601120B0DD38601120B0D75874A
:101DC30001120B0DD18701120B0D168801120B0D99
:101DD3005D8901120B0D718A01120B0D608E0112C8
:101DE3000B0DE48E01120B0DF18F01120B0D4D90B3
:101DF30001120B0D3D9201120B0DB29201120B0D4C
:101E0300BC9201120B0DC99201120B0DF492011237
:101E13000B0DDB9301120B0D859401120B0D039532
:101E230001120B0D239501120B0D4C9501120B0D95
:101E33006E9501120B0DCE9701120B0D94980112A2
:101E43000B0DD99801120B0D569901120B0D079A20
:101E530001120B0D399A01120B0D7F9A01120B0D12
:101E6300BB9A01120B0D0B9B01120B0D5F9B011211
:101E73000B0DB59B01120B0D019C01120B0D6E9CFA
:101E830001120B0DE99C01120B0DB49E01120B0DF7
:101E9300B49F01120B0DD9A001120B0D18A401124E
:101EA3000B0D2BA701120B0DE8A701120B0D2CA88C
:101EB30001120B0DDCA901120B0DF0A901120B0D80
:101EC300FAA901120B0D04AA01120B0D10AA01129B
:101ED3000B0D2CAA01120B0DD7AA01120B0D16AB79
:101EE30001120B0D20AB01120B0D2AAB01120B0DCE
:101EF3009AAB01120B0DE5AB01120B0DFAAC0112FB
:101F03000B0D56AD01120B0DD7AD01120B0D96AE95
:101F130001120B0D9FAF01120B0DD3B001120B0D6C
:101F2300C1B101120B0DD9B101120B0D34B2011263
:101F33000B0D52B201120B0D9AB201120B0DC1B26D
:101F430001120B0D5CB301120B0D22B401120B0D28
:101F5300B4B401120B0D2EB501120B0D48B60112CC
:101F63000B0DF5B601120B0D1DB801120B0D6DB85B
:101F730001120B0DD1B801120B0D33B901120B0D68
:101F830061B901120B0D85B901120B0DBAB901121A
:101F93000B0DEBB901120B0D1EBA01120B0D3EBA5C
:101FA30001120B0DA6BA01120B0D9ABB01120B0DF8
:101FB300F5BB01120B0D1EBC01120B0DA6BC0112C9
:101FC3000B0D29BD01120B0D54BD01120B0D39BEB2
:101FD30001120B0DACE403120B0DE4E403120B0D21
:101FE30005E503120B0D47E503120B0DA9E50312DB
:101FF3000B0DB3E503120B0DC3E503120B0DFEE549
:1020030003120B0DDEE903120B0DCBEB03120B0DC9
:10201300B1ED03120B0D48EE03120B0DEAEE0312A2
:102023000B0D3BC001120B0DB9C001120B0D15C1F5
:1020330001120B0D60C101120B0D7BC101120B0DBF
:10204300A6C101120B0DC3C101120B0DCFC10112A9
:102053000B0D66C301120B0D7FC301120B0D04C4DC
:1020630001120B0D17C401120B0D36C401120B0D17
:10207300DAC401120B0D5BC601120B0D0EC801125F
:102083000B0DA4C801120B0DA7C801120B0D17C924
:1020930001120B0D35C901120B0DCCC901120B0D29
:1020A30014CA01120B0D17CA01120B0DDDCA01125E
:1020B3000B0D4ACB01120B0D70CB01120B0DFBCB99
:1020C30001120B0D19CC01120B0D5FCC01120B0D7C
:1020D30013CD01120B0D5DCD01120B0D8CCD011231
:1020E3000B0DE9CD01120B0D1ECE01120B0D4ACEC5
:1020F30001120B0D58CE01120B0DA5CE01120B0DC3
:1021030015CF01120B0D5ECF01120B0DAACF0112D9
:102113000B0DD6CF01120B0DE1CF01120B0DFFCF2B
:1021230001120B0DEAD001120B0DF4D001120B0DAD
:102133002FD101120B0D3FD101120B0D48D101120A
:102143000B0D9CD101120B0DB0D101120B0DDFD27F
:1021530001120B0DF6D201120B0D0BD301120B0D55
:1021630099D301120B0DDED301120B0D6AD40112A8
:102173000B0D75D401120B0DB7D501120B0DD2D572
:1021830001120B0D1ED601120B0D8DD601120B0D74
:10219300C6D601120B0DE0D601120B0D22D7011288
:1021A3000B0DF2D901120B0D9FDA01120B0D0CDB93
:1021B30001120B0D4CDD01120B0D64DD01120B0D31
:1021C30067DD01120B0D73DD01120B0D87DD0112AB
:1021D3000B0D8FDD01120B0DC2DD01120B0DC4DEE1
:1021E30001120B0D4BDF01120B0DBBDF01120B0DA7
:1021F3003DE001120B0DFEE001120B0D1DE101127A
:102203000B0DBEE101120B0D1BE201120B0D1EE2C1
:1022130001120B0D4BE201120B0D60E201120B0DCB
:10222300D4E201120B0D23E401120B0D29E5011277
:102233000B0DB4E501120B0DCFE601120B0D97E761
:1022430001120B0DC8E701120B0DEBE701120B0D89
:10225300F4E701120B0D23E801120B0DB3E8011291
:102263000B0D69E901120B0DDEE901120B0D85EA75
:1022730001120B0DFAEA01120B0D31EB01120B0DDA
:102283006FEB01120B0DA5EB01120B0DF885041278
:102293000B0D558504120B0D558404120B0D6E8323
:1022A30004120B0D5E8104120B0D6C8004120B0DD6
:1022B3000A8004120B0D2F9703120B0DC496031201
:1022C3000B0DF89403120B0DB69403120B0DBA9376
:1022D30003120B0D36DA03120B0D1ADA03120B0D70
:1022E3008E9303120B0D459303120B0DF3D70312B9
:1022F3000B0DB5D703120B0D869203120B0D8B8FAB
:1023030003120B0D608D03120B0D078D03120B0DC2
:102313009A8C03120B0D598C03120B0D928B031223
:102323000B0D2C8B03120B0DCB8A03120B0D6B8A37
:1023330003120B0D428903120B0DD68803120B0DEA
:102343002E8803120B0D298803120B0D1D8803120F
:102353000B0D508403120B0D2A8403120B0D87D728
:1023630003120B0D54D703120B0DD8D603120B0D0A
:10237300528904120B0D1E8904120B0DC788041217
:102383000B0D358704120B0DC88303120B0D6A83E3
:1023930003120B0D288303120B0D158303120B0D70
:1023A300878604120B0D0A8303120B0DD9820312C5
:1023B3000B0DF88003120B0D6B8003120B0D7D8642
:1023C30004120B0D278003120B0DB9DD02120B0D46
:1023D300008003120B0D47FA03120B0D1AFA0312B6
:1023E3000B0DE7F903120B0DBFF903120B0D60F987
:1023F30003120B0D40F903120B0D0BF903120B0D16
:10240300B7F503120B0D9FF303120B0D89F10312A2
:102413000B0D09F103120B0DB5F003120B0D69F04F
:1024230003120B0D738604120B0DC1EF03120B0D78
:1024330088D20200000080FBE4738F0001005A1968
:1024430087000100581935000400211925000200F6
:102453002519260002002719270002002919280040
:102463000100331929000100341984000400921675
:1024730086000100B0182A00010035192B00010065
:1024830036192C0001003A192D0008009E162E0063
:1024930001003B192F0001003C19300001003D19D8
:1024A300310001003E1932000100A616330001007D
:1024B300A716340001003F1936000100A8163800A2
:1024C300010040193900010039198300020056192F
:1024D30063000100B41664000100371965000100B0
:1024E30038196D000100B5167100080096166600D4
:1024F3000100551943000100461944000200471921
:10250300450001004919460002004A194700080026
:10251300AC16480001004C194B0001004D19040092
:1025230001005919A10001005D19370001005C1970
:10253300880001005B193C000100A9163D00010061
:102543004119490002004E1967000100B6164D00FB
:10255300020050194E00010052194F000200531996
:102563003E000100451951000100AA165200010066
:10257300431953000100441954000100AB16000035
:10258300000000000000000020011A82000001008A
:1025930020011C820000020020011E8200000300B3
:1025A30020011B82000004004201CC8000000500D2
:1025B3004201FE80000006004201DE8000000700A9
:1025C30030011F820000004042013C810000FEFFF9
:1025D300210118820300FEFF21011882030000007D
:1025E30021237F150A0006002301F81801002100AA
:1025F3002001EF18010001022123F2180100160245
:102603001023FC18010036022823FD1802040000E1
:1026130029018115020420052023F718020404056B
:102623001023F61805040000210185150804000095
:102633002101851500040000210183150004100306
:102643002923FE18000136360101000102010001B1
:10265300030100010401060605020000070100341E
:102663000801000F090401010D0100FF0E0800001D
:1026730017020000190100FF1A0100011B0100FEEF
:102683001C0100081D0200001F01000120010001C0
:10269300210200002301000F240200002601000193
:1026A30027010008280200FF2A0100072B0102402E
:1026B3002C0100002D0100012E0100012F0100FF5C
:1026C30030010B1D310800003A0100083B01000FE7
:1026D3003C0100013D0100FF3E04000042040000F4
:1026E300460400004A0400004E04000052040000A7
:1026F300560400005A04000001037103010301039F
:102703000103010301032203020301031003000376
:10271300000300030003000300030003420300035C
:102723002403060300030003040312032503230306
:1027330025032303040304030003000300034403EA
:102743000003000323030003650321003503810312
:102753000003050300030003000300032503230311
:1027630003027102300160021102700201020202CF
:1027730002028002100261023A0041006302730206
:1027830072026202430200021302380000020002D6
:102793000402120200020002000200020402040208
:1027A300370037003C0244020002390000020002F5
:1027B30065020002350281020002050282028302E1
:1027C3000002010171010101010111010101310146
:1027D300010101018001100161013B00140063014B
:1027E30073017201620143010001130106013D01FE
:1027F3003500040112010001000100010001040180
:102803000401330133013C0144013201360000016C
:10281300000165010001350081010001050182010C
:10282300830100010300710030016000110070009A
:1028330031022003500480001000610000001400E6
:10284300630073007200620043000000130006007F
:10285300000000000400120000000000000000005F
:1028630004000400370037003C024400000000006D
:102873000000000065000000350081000000050035
:1028830000008300000036000100060000000F0076
:1028930000000000000000000000000003FFFF0034
:1028A300000403FFFF0000FFFF0FF4010005C40451
:1028B3000320000100000B000000000000000003E3
:1028C300010F0000000000000000000000000000F5
:1028D30000000000000000000000000000000000F5
:1028E30000000000BA15E415C015FA14C615EA1560
:1028F300C615F615CC15FA14C615EA15D215FA1431
:1029030000000000D815FA140000000000000000C9
:10291300DE15FA14000000000000000000000000B3
:1029230000000000000000000000000000000000A4
:102933000000000000000000000000000000000094
:1029430000003C1801003C180200B2170280AC17CB
:102953000300B8170400BE170480C4170500CA1784
:102963000600D6173100E8173300EE173400F417CA
:10297300FFFF0000030003000400080010001F0015
:102983003E007B00F600EC01D703AF075D0FB91ED5
:10299300713D000007ECFDFDFDECDCDCCCBCACAC18
:1029A3009C9C8C7C7C6C6C5C5C5C4C4C3C3C2C2C14
:1029B3001C1C03EAF5E5D5D5C5B5A59595858575A3
:1029C30075656555554545353525251515050A188C
:1029D3001E02E21D05EE1D07E81D0CCA1D0DD61DC6
:1029E300FF000000160F00000B150B020002220F60
:1029F3003300000E0F5A6967426565416C6C69616B
:102A03006E63653039D0D1D2D3D4D5D6D7D8D9DAFD
:102A1300DBDCDDDEDF303016181920231A1C1E30F4
:102A230000034D4C4651181A2505020001191618CA
:102A3300161618230300303017181921301B1D1FD9
:102A430030003C40423A3F3F392F47300C0E020BD7
:102A5300040B0A0708000F02040201010101090225
:102A6300E803000000BE040A010024000300E80399
:102A7300FF04091803100F030A0C041E0828021888
:102A83000A10151E05C082C08312236A9016DF74D4
:102A9300BAF0A3741BF09016E174C0F0A3741BF09A
:102AA3009016E374C6F0A3741BF09016E574CCF093
:102AB300A3741BF00257C374F71206109016D3E4E5
:102AC300F0E99016D2F07CAC7D167AD47B16121402
:102AD300D090194CE09016DCF09016DD7496F0A3BC
:102AE3007416023A5074F0120610EAFEEBFF54809B
:102AF3007003022C599016D2123AE57003022C523D
:102B0300EA241B125350707CEA241F12535064139F
:102B13007002A3E0706E8A828B83122CA79016ED4D
:102B23001248E2750A00750B00800D1239261269EE
:102B3300C21213D4AA0EAB0FEA4B60488A828B836E
:102B4300E0650C7004A3E0650D702C8A828B83A36F
:102B5300A3A3A3E0F50EA3E0F50FE50A450B8A82D4
:102B63008B83A3A3A3A360C3123C28850A82850B8E
:102B730083A3A3A3A380B78A0A8B0B8A828B8312B6
:102B830048DE80B4E508242A125350FCE5082402E9
:102B9300F8E43509F9E8FAE9FB9016ED122D8EA356
:102BA300A3E06402703C8A828B831248E2800B8824
:102BB300828983A3A3A3A3123C28E849601F8882C8
:102BC3008983E06A7003A3E06B70E488828983A33E
:102BD300A3E06C70DA901952125680806BECF912F4
:102BE3001BF6850882850983E06401704FE508249C
:102BF30018122C90120B4B125F6A120960E508241D
:102C030012122C90120B4BE508123AD9120B47E51E
:102C130008240B125F6E120964E5082417123A7632
:102C2300E5082402FCE43509FDE5082419FAE43536
:102C330009FB12240C740A120B5A800CE064027014
:102C430007AA08AB09121CD4AA08AB0912133EEE5B
:102C5300FAEF6480802DEA5402600C9019617401CC
:102C6300F0EA6402FA8023EA5408601A121BF0EABD
:102C73004B700B9016EF125E457A08122C9DEE6492
:102C830008FAEFFB80047A007B000265F4F582E426
:102C93003509F583E0F50A780A22FB9016D2E0F9AC
:102CA3001214A022A3A3E0F50CA3E0F50D227B00F0
:102CB3009016D2E0F912149474042274F4120610DC
:102CC3008A088B098A828B83A3A3A31246DA123A5A
:102CD3008138F583E02409FA12658C7003022D8193
:102CE3008A828B83740212474F8508828509831277
:102CF3002D8EE8F0A3E91262068A828B83A3A3A335
:102D0300A3A3A3A3A3F0E5082403F8E43509122D34
:102D130083123A813AF583E08E828B83A3A3A3A324
:102D2300F0EE2409FAE43FFB8E828F83A3A31259AA
:102D330032F5838882E0A2E58E828F83A3A3A3A3C7
:102D4300A3500474018001E4F0E5082403F58289AB
:102D5300831248E2EA124E633BF583126553120B6A
:102D630043123A803B125A248E828F83A3A3127795
:102D730002120B5AEEFAEFFB9016D21265D98016A7
:102D8300F98882F583E0FAA3E0CA22124A7FA3A35B
:102D9300227402120B5A7F0402089574F212061071
:102DA3008A088B09ECFAEDFB740E120E63E0FC1239
:102DB3000E8E8A0C8B0DAE0CAF0DEA4F6030AC0853
:102DC300AD091222D4E96026AC08AD09EEFAEFFB97
:102DD3001218FCE970148E828F83123C15FAEFFBF4
:102DE3001222DAAA08AB09120EA67900800279B47E
:102DF3000249CE74F012061074F6120C09EAFEEBC7
:102E0300FF8C088D09750FB3852182852283E4F039
:102E1300750E008002050E902A87E493F8E50EC331
:102E2300984003022F1DAA0E7B00120ECA8A0A8B3A
:102E33000BEA4B60E08A828B83A3A3122F2428F032
:102E4300F8C3EE98EF940050CC7C157D007900AA6E
:102E530008AB09121326850A82850B83A3A3A3A3B8
:102E63001269FFE0F8EEC3982925E0F8E433F9E5A9
:102E73000A28F582E50B39F583A3A3A3A3A3A31221
:102E83003A8BA31254A78A0C8B0DAC0CAD0DAA0878
:102E9300AB091214D0850A82850B83A3E064017009
:102EA3000A125F6A7401123A9D80447401120BEB9B
:102EB300850A82850B831248E0120EB2E9603D74E5
:102EC30009120E63E0C0E0125F6AD0E0F0740912E9
:102ED3000E63E0640370137401120BEBE508240B1B
:102EE300FAE43509FB1214D080127401120E631236
:102EF3003C28E50812548D35091269C0850A82857C
:102F03000B83125F76123A9DA3A3E0C0E0E5082489
:102F130014125F6ED0E0F0750F00A90F740A0265FA
:102F2300F1A3A3A3E0F8852182852283E02274F72D
:102F3300120610E9FE8A828B83A3A3A3A3A3A3E0B3
:102F4300540860338A828B83A3A3A3A3A3A3E0546F
:102F53000260218A828B83A3A3A3A3A3A3A3A3A316
:102F6300E06406600F74E96E600A74CD6E600574E8
:102F7300F06E7003121BD80242CD74F01206107467
:102F8300EF120C09740F120E63125D297408120EEE
:102F930063E9F0ECFEEDFF7405120E631240951227
:102FA30042B9A3E0F9120E9A7406120E63125D2958
:102FB3007406120E63124EF47003023238123AC5CD
:102FC300E0FA7406120E63E0F9121B18123298F835
:102FD300A3E0F9E8497003023238EE2403F50AE46A
:102FE3003FF50BEE2406F508E43FF5097C00850860
:102FF30082F5831248E2850A82850B83E0F9120E7B
:10300300A07403120E63125D29850A82850B83E087
:10301300C0E0852182852283123291D0E0125009CB
:10302300F985218285228312392D124B5B122F27BA
:10303300FAA3E0CA2407F582E43AF583E8F0A3E4AF
:10304300125D342406F582E438F583E41269CC1268
:1030530046CE120B43EE123A813F125A24740312E6
:103063000E631246DA24091276FC120B5A742912E3
:103073000E631269F9122D8812501C3A1269C0743A
:103083002B120E63E0C0E0852182852283124EBBA2
:10309300D0E0F07402120E63E4F07425120E63782C
:1030A30008120E0C02318F7403120E631259EC884E
:1030B30082F583123280A3A3A31254B2FB120EB87B
:1030C300850E82850F83A3EAF0A3EBF07403120E3F
:1030D30063123291A31232801256C1A2E6500F85B9
:1030E3000E82850F83A3A3A3A3A3E0D2E1F074050B
:1030F300120E63E0706B850E82850F83A3123C284A
:1031030090172DE0687003A3E0697055850E8285E2
:103113000F83A3A3A3123A60750C00780C120B4B18
:103123007808120B3F7429120E63E0F50C780C1229
:103133000B4B7427120E6312096490173A12096439
:1031430079007419120E631248B2121D1C740A120C
:103153000B5A850E82850F83A3A3A3A3A3E0440583
:10316300F07402120E63E004FC8E828F831248DC3B
:103173008E828F83A3A3A3E0F9120EA07403120E11
:1031830063125D297402120E63E004F07403120EDD
:1031930063124EF460677402120E63E0FA7406124F
:1031A3000E63123C28C3EA98E49950517402120E3C
:1031B3006312356A852182852283E028F8A3E039EA
:1031C300F9E8240FF50EE439F50F850E82F583E453
:1031D300F07403120E6312328B640160030230AA8F
:1031E3007405120E6374011265DFF07403120E632B
:1031F3001257B312358DE8F0A3E90230CE85218250
:103203008522831248E2121B1E85218285228312A6
:1032130009647426120E63E0FD7425120E63E0FC4C
:10322300740A120E63E0F9EEFAEFFB121BD274027A
:10323300120B5A80438E828F83A3A3A3E0C0E07452
:103243000C120E63D0E0F0126448E0C0E0740D127B
:103253000E63D0E0F07406120E63124EF47009741C
:103263000E120E6374B98007740E120E637410F09D
:103273007409120BE3121D1674110265F1E0850E39
:1032830082850F83A3A3A322E0124FE1E022E01281
:103293004FE1A3A322852182852283EAF0A3EB12C7
:1032A3004EFD2274F012061074E1120C097404121C
:1032B3000E63E9F07403120E63ECF07402120E63F2
:1032C300EDF08A0E8B0F742F120E63122CA9AA0C29
:1032D300FB121B0C7401120E63E9F0AA0CAB0D1266
:1032E3001B127401120E63E070030235658521829F
:1032F300852283E480158E828F83A3A3A3A3A3E0F7
:10330300D2E3F0852182852283E004126537F885B4
:103313002182852283E0C398400302355C74011245
:103323000E63E0700302355C8521828522831235AA
:103333006AE50C28F8E50D39F9E8240FFEE439FFB6
:103343008E82F583A3A3A3A3A3E0A2E040B57508EF
:1033530000750A08750B007402120E63E0600375B2
:1033630008207C087D0079007405120BE3121326F4
:103373008E828F83E0603E90177DE06401701AE5D2
:1033830008D2E3F508750B1012357A120E63E8F0D4
:10339300A3E91253A574FF807643080C750A0C8EBB
:1033A300828F83A31235851269C27405120E63746A
:1033B300FFF0A3805A7404120E63E06009E508D29B
:1033C300E6F508750A0A8E828F83A3E064FE700314
:1033D300A3E0F470307412120E637404125F94F855
:1033E300741D120E63E812474F7412120BE3121A84
:1033F3003A7D007C0079007415120E63AA82AB83B8
:10340300121824800B12357A120E63E8F0A3E9F048
:103413007407120E63E508F0123ABCC0E074091297
:103423000E63D0E0F0740A120E637401F074051297
:103433000BE3121CDA7411120E63E0600302353AD7
:10344300740D120E631250048E828F83A3A3A3A361
:10345300F0740D120E6312471DE50AF0A3E50BF09D
:103463007403120E63E0C0E01246AED0E01256C100
:10347300601190177DE0C0E0740D120E631246F8E0
:10348300D0E0F0740D120E63123C28850C82850D7A
:1034930083A3A3A3A3A3123573241C125D23126970
:1034A300DC12357512567339126467C0E012469503
:1034B300D0E012652CC0E0740D120E631241DBD014
:1034C300E012622DC0E0740D120E631241D1D0E000
:1034D300F0740D120E63123585123573242A125DB2
:1034E30023850E82850F83A3A3A3A3A3A3A3A3E092
:1034F300125D1C123AABC0E01241BDD0E0F0740D76
:10350300120E631248E2850E82850F8312654224F0
:1035130028F582E43B1269C0123AB4126553120BC8
:1035230043125A1DEA125CB53B127700120B5A7410
:1035330005120BE3121CE08E828F83A3A3A3A3A324
:10354300E0D2E0F07411120E63E060030232F9740A
:1035530001120E63E0140233057900AA0CAB0D12BD
:103563001BDE741F0265F1E075F007A4F8A9F022D1
:10357300A3A31248E6E8228E828F83A3123C2C7405
:103583000522E012358DA3A3A322F8A3E0F9850E4B
:1035930082850F83A32274F012061074E8120C09BB
:1035A300E9852182852283F08A0E8B0F8A828B83A1
:1035B300A3A3A3A3A3A3A3A3E0F9121B368A088B97
:1035C30009EA4B7003023676E50E124E77123AD4AF
:1035D300123A6B852182852283E060030236797C6F
:1035E30004850E82850F83A3A3A3A3A3A3A3A3E0B0
:1035F300F9121B3CEE4F607B8E828F83A3A3A3A3A0
:10360300123C287407120E63125E5A123C28740986
:10361300120E6312477FC0E07411120E63D0E012E2
:10362300620BA3A3A3A3A3A3A3123C28740F120E9C
:10363300631269C27412120E63E41265E7C8241F91
:10364300F582E438F5831259E8C413135403FC706C
:10365300027C048E828F83E0F97808120B47742072
:1036630059FD744059F97403120BE3121BD274020F
:10367300120B5A0265EF7C08850E82850F83A3A384
:10368300A3A3A3A3A3A3E0F9121B3C8B0BEA4B70E8
:10369300030235F7EE4F60DB852182852283E0F557
:1036A3000C780C120B4B850882850983A3A3A3A373
:1036B300A3A3A3E0F50C780C120B4B8A828B83A394
:1036C300A3A3E0FB8A82850B8312721F8A82850B78
:1036D30083E0FA8E828F83A3A3E0F912241274028B
:1036E300120B5A0235FB74F712061074FA120C0906
:1036F300E9FE780179017F00800379000F124A5EA9
:10370300E0FCEFC39C5026EF75F007A4FC85F0089E
:10371300AD08EA2CFCEB3DFD12404DE0A2E050DA8F
:10372300540C60D6E0A2E250D3780080CF8A828B1B
:1037330083A3A3A3A3A3A3E0703DE9A2E040057480
:10374300016E70338A828B83A3A3A3A3A3A3740103
:10375300123A3DE0C0E07403120E63D0E01240ACB5
:10376300E0C0E07404120E63D0E0F07405120E633F
:10377300E8125987121D1674060242CAC082C0831A
:103783007901121BDE0257C374F4120610EA4B9040
:1037930019616019E4F08A088B09F50AF50B7808BA
:1037A300120B3F7A02122CB1120B5A800A7401F0E9
:1037B3007A027B00122C9E022D9974F0120610746B
:1037C300F3120C097403120E63E4F0A3F09016EDE8
:1037D300123A6B7401120E63E4F0A312475404F01F
:1037E300901727E0A2E350030238B0123A3174096C
:1037F300120E63120E4C7409120E637808120E0C2B
:103803009016EF7808120BC37405120E6378081232
:103813000DFD1239347405120E637808120DA05091
:10382300077A017B000239217405120E63780C12AA
:103833000E0C901951E0F509780C79081205A1A82E
:103843000CA90D901952E0C398E4995003E080014C
:10385300E8852182852283F07409120E63780812A9
:103863000E0CC008C009C00AC00B7405120E6378A1
:103873000C120E0C123934780C79081205A1E4F5F8
:103883000AF50BD00FD00ED00DD00C780C7908129E
:103893000C879016EF780C120DFD80111239261249
:1038A30069C2EEFAEFFB1213D4AE08AF09EE4F6014
:1038B300658E828F83122F24C398502DEE2403F834
:1038C300E43FF9E0FA88828983E0C39AF0602374C5
:1038D30003120E63123D8E7401120E63EEF0A3EF1A
:1038E300125E75FEA3E0FF80C48E828F83A3A3A321
:1038F300E4F08E828F831276B97401120E63124E36
:10390300F48E828F83A3A3A3A36091125E4E120E43
:103913006312392D80897403120E631248E2740D09
:103923000265F1123C2C9016ED22125A13A3A3A3A5
:10393300229019501276C1E4F50AF50B2274F012A5
:1039430006108A088B09890A780079009016ED120F
:103953003A6BFBEE4B601E088E828F83A3A3A3A357
:103963001248AC601008E87001098E828F83123A06
:1039730067EA4F70E39019531248E2C3E89AE99B50
:103983004003023A247A06123A27A80CA90DEA4901
:103993007003023A248A828B83E508F0A3E50912B7
:1039A3003A46E50AF0901952124A66123A3DA3E4E8
:1039B300F0A3F09016ED1248AC600D8E828F83A3B6
:1039C300A3A3A31269C280179016ED1269C29017C0
:1039D30027E0A2E34009123A319016EF120E4C9001
:1039E3001727E0A2E3503A7A087B009016D2E0F959
:1039F3001214A6EA4B4C4D7028901950E0F508A319
:103A0300E085080CF50DE4F50EF50F780C120B3F6D
:103A13007A087B009016D2E0F912149A7404120B00
:103A23005A0265F47B001213CE8A0C8B0D221214FA
:103A3300B8EAF8EBF9ECFAEDFB22123A4122123A1A
:103A430046A322F08A828B83A3A322E508F00242D5
:103A5300CDF08E828F83A3A3A3A3A3A32212535ECD
:103A6300A3A3F022A3A3A3A3E0FEA3E0FF227F0569
:103A7300020895F582E43509F583E0F922EA123A62
:103A830085222410F582E422123A93A3A3A3A3224E
:103A9300123C3085088285098322123AA122F085DF
:103AA3000A82850B83A3A322E50E2411123AD1E0E7
:103AB30022E50E240E123AD122E50E2410123AD139
:103AC300E022123AC922EE123A853FF58322F582AB
:103AD300E4350FF58322240FF50AE43509F50B7855
:103AE3000A22E0F91213508A088B09EA4B2274F276
:103AF300120610890B8A088B098A828B831248E28B
:103B0300121C02EA4B600479B8806A121C0EE9F8B1
:103B1300902A78E493F9E8C399400479B280567AFD
:103B230015123A27AE0CAF0DEA4F70047910804599
:103B33008A828B83E4F0A3123A46E50BF0750A0000
:103B43007808120B437C127D00EA24031264FE12F0
:103B53000B5A9016F3124EF470089016F3800C1261
:103B63003C2888828983123B7B70F4EEF0A3EFF04C
:103B7300121C2079000249CE1248E6EA4B8882895A
:103B83008322C082C0839016F380048C828D8312BB
:103B93007220EC4D60288C828D83A3A3E0696005BD
:103BA30074FF6970E68C828D83A3A3A3E06A70031C
:103BB300A3E06B70D6EC2403FAE43DFB80047A00A7
:103BC3007B000257C374F7120610E9FD74FE6D7093
:103BD300047C0180027C009016F380096D70027CE6
:103BE3000188828983124EF4601F88828983A3A38C
:103BF300A3E06A7003A3E06B70E7ECA2E08882891C
:103C030083A3A3E050D6F9800279FE0242CDEEF9F8
:103C1300800CA3A31276C1EE227402120B5A7F0208
:103C2300020895F583123C2C22123C3022E0F8A3C3
:103C3300E0F922123C308E828F8322120B5A7F03CB
:103C4300020895C082C08379009016F3800109E0D1
:103C5300FAA3E08A82F583E582458370F10257C3B4
:103C630074F6120610E4F508F5097808120B47906C
:103C73002A78E49375F013A4A9F0123D83126A2005
:103C8300120B5AE9FE74096E7003121C1A023C11DE
:103C930074F612061074FE120C09852182852283A4
:103CA300E4F0A3F0A821A922880889097808120B57
:103CB300477508027509007808120B4712669112BE
:103CC3000B5A023C1C74F512061074EB120C098596
:103CD3002182852283E4F0A3F09016F380748E8210
:103CE3008F83A3A3E0C0E07402120E63D0E01253EB
:103CF300A5A982AA8389088A09750A007808120B84
:103D0300437C127D007406120E631269E5120B5A8E
:103D13007402120BDB880889097808120B477508AF
:103D2300137509007808120B477404120E63124EC0
:103D33009775F013A4F8AAF075F013E9123D7F12FA
:103D43006699120B5A852182852283123D8E8E82BB
:103D53008F83123A6BEE4F7085A821A922880889B8
:103D6300097808120B477508027509007808120BC9
:103D730047126691120B5A7415023C3EA42AF9E8C5
:103D83002402FCE439FD7A427B0022E02401F0A303
:103D9300E03400F02274F412061074EB120C097E66
:103DA300007F00A821A922880889097808120B47F7
:103DB3007508028E097808120B477C007D007A4251
:103DC300126A2C120B5AE9706C8E08805674021218
:103DD3000BDB880A890B780A120B47750A13750BDC
:103DE30000780A120B47E50875F013A4F8AAF075DA
:103DF300F013E509123D7F126A2E120B5AE9701B6C
:103E03007403120E63AA82AB837402120E63E0F989
:103E1300121BFCE970050EEE70010F0508E5087032
:103E2300020509852182852283123C28C3E508986F
:103E3300E509994098EEFAEFFB7415022D9674F696
:103E43001206108C828D83A3A312409AF0EA125CAF
:103E5300BB3BF583E0C0E0124057D0E0F0EA241DFD
:103E6300F582E43B123C2612403B124095F0A3F04E
:103E7300EA241FF582E43BF583123A6BEC12402EE1
:103E83003DF583EEF0A3EFF01240343BF58312408F
:103E930065A3A3A3A3A3A3EEF0A3EF125916FE8C6D
:103EA300828D831240A474035EFEC3940340030215
:103EB3004021EE600874026E6003023F468C828DDF
:103EC30083E0540CFE740C6E7003023F85E0A2E4A1
:103ED300400D88828983E08C828D83A31240BA745B
:103EE300086E6003023F851240457401F08A828B9D
:103EF30083A3A3A3A3A312536B70148C828D83E0BB
:103F0300440C1240ACA3A3124065EEF0A3EFF08C77
:103F1300828D83E0A2E4402B888212407312408892
:103F2300500109F582124073A3A3A3A3A3A3F0A393
:103F3300EF1240B48C828D83A3A3A3F0E82403F88B
:103F430050010988828983E0C0E0EC2411F582E402
:103F53003DF583D0E01240A48C828D83E0A2E7502C
:103F63007588828983E0FE8C828D831240BA74FC4B
:103F73005E700C8C828D83A3E054036403701E0275
:103F83004021124045E4F0740C6E6003023EF08859
:103F930082124079124088500109023F128C828DAF
:103FA30083A3E05403603288828983E0C0E0EC128B
:103FB300405F3DF583D0E01240BB8C828D83E0549B
:103FC300036402701488828983E0C0E012404DD0FC
:103FD300E01240BB8003A3E4F0EC124E633D126990
:103FE300C0EC2410FEE43DFFEA241DF582E43BF51A
:103FF30083E0F5088E828F83E0C3982508F508F0E7
:10400300EA2417F8E43BF98882F583E0C39508C0F6
:10401300E012403BD0E0125916C39508500A1240F3
:104023003BE4F0124057E4F0023C212415F582E40E
:1040330022EA240DF582E422EC240DF582E43DF519
:104043008322EC12501C3DF58322EC2414F582E408
:104053003DF58322EC123A853DF583222413F58244
:10406300E422E0FEA3E0FF8C828D83A3A3A3A3221B
:10407300124079A3A3228983E0F508A3E0FFE508B2
:104083008C828D8322A3A3A3A3F0A3EFF0E82402E1
:10409300F82212409AA322E4F08C828D83A3A3A377
:1040A300221240C2A882A98322123A41A3A3A3A346
:1040B300221240C2A3E022A31240C208A983221203
:1040C300591FA32274F412061074F3120C098A0AFE
:1040D3008B0BECFEEDFF8C82F583E0540CF508E0CE
:1040E300A2E75006E508D2E7F508E508D2E1F508AE
:1040F30012536B7006E508D2E4F508E0A2E550061A
:10410300E508D2E5F5087C087D007900AA21AB22F9
:104113001213267402120E63E5081269C6C0E07416
:1041230003120E63D0E0124754E50AF0A3E50BF047
:104133007405120E63126232120E63E07077740814
:10414300120E631246DA1259083812624DC0E07437
:1041530008120E631241DBD0E012622DC0E0740836
:10416300120E631241D1D0E0F07408120E631241B3
:10417300C7E0124702124783125D1CEE241112534B
:1041830037C0E01241BDD0E0F0EE2414125337C023
:10419300E07408120E631246DA2435F582E438F52A
:1041A30083D0E0124727C0E07408120E631246DE84
:1041B300D0E0125F86740D022D96E82432F582E476
:1041C30039F58322123C36A3A3A3A3A3A322124649
:1041D300EE12642C38F583221246EE2426F582E48F
:1041E30038F5832274F71206107E008A828B83A32C
:1041F300A3A3A3A3A3A3A3A3E0640460030242A90C
:10420300125014E060030242A9124E763B124EF2A2
:1042130070030242A988828983E054036003024247
:10422300A9E812501C39F583E0FA8C828D83A3A38D
:10423300E0FBA3E0CB2411F582E43BF583E06A7055
:104243006588828983A3A3A3A3A3A3A3A3A31242E1
:10425300ADE06A7003A3E06B704C88828983A3A3EB
:104263001242B9E0FFA3E0CF24061253376A70036A
:10427300A3E06B703188828983A3A3E0F88C828DDD
:1042830083A3A3E0F9A3E0F5838982A3A3E0686095
:10429300138C828D83A3A3A3E0F5838982E0540C5E
:1042A300640470027E01EEF980201242B1221248AA
:1042B300EA8C828D8322A3A31242B1A3A322740C9E
:1042C300120E63E0F9740D120B5A7F010208957404
:1042D300F612061074FC120C09EAFEEBFFECFAED81
:1042E300FB8C82F583A3E0540360169016E9124E0B
:1042F300F460597900EEFCEFFD125B1312243B804E
:104303004B852182852283EEF0A3EFF07402120E17
:1043130063124749AC21AD227A387B1C121E608A96
:10432300088B09A808A909EA4960218A828B83A31B
:10433300A3A3A3A3A3A3A3A37406F07A0088828BE9
:10434300831246DA125CDCE0F9121DBE7404023CEF
:104353001E74F212061074F3120C09EAFEEBFF8AC4
:1043630082F583A3A3A3A3A3A3A3A3A3A3E0F50A13
:10437300901961E0700579BA0246927508017509D2
:1043830000750C00750D007C087D007900AA21AB37
:10439300221213267405120E63740112475C54042F
:1043A30060127402120E63E0D2E612475C54087086
:1043B30003750803E05410600674404508F508E0EF
:1043C300540860227402120E63E044C012475C5426
:1043D30020600A7403120E63E0D2E08008740312B3
:1043E3000E63E0D2E1F0EE24151253371246C27089
:1043F30003740169700674084508F5088E828F837B
:10440300A3A3A3A3A3A3A3A3E07016121EBA85219B
:1044130082852283125D297402120E63E0D2E28048
:1044230030640F70107402120E63124764740445F3
:1044330008F508807F8E828F83A3A3A3A3A3A3A3DE
:10444300A3E064028E828F83700A1269F9E8F0A3F5
:10445300E9F08060A3A3A3A3A3A3A3A3E0640370D1
:104463000DAC21AD22EEFAEFFB121C6E80468E825C
:104473008F83A3A3A3A3A3A3A3A3E0640170359095
:10448300177DE060107402120E6312476475091001
:10449300750AFF80187402120E63E0440C1247542D
:1044A30074FDF0A374FFF074044508F5088E828F41
:1044B30083122CA9EE2415125337A2E0503F740245
:1044C300120E63E0540C701B8E828F831248E2122B
:1044D30018EAE9700579BB0246927402120E63E092
:1044E300D2E5F0EE2415125337A2E05010740212F5
:1044F3000E63E0540C64047004E0D2E5F0EE241182
:10450300125337C0E07404120E63D0E01262341207
:104513000E63E0600302468B7408120E6312471D9C
:10452300E508F0A3E509F01246B8E0C0E01246AE94
:10453300D0E0F012469FE0C0E07408120E6312460A
:10454300DA12405F38F583D0E012478364017011BB
:1045530090177DE0C0E07408120E631246F8D0E0B5
:10456300F07408120E631247181246A9FAE8241CC5
:10457300F582E439F583EA12474FEE2415FAE43F56
:10458300FB8A82F583127220E812567339F583127F
:104593004749EE241C125337C0E0124695D0E0126F
:1045A30057B91246C2700374016970137408120E6E
:1045B30063125004FAEE241D125337F9121B428E74
:1045C300828F83A3A3A3A3A3A3A3A3A3E0C0E074A5
:1045D30008120E631241DBD0E0F07408120E63126E
:1045E30041D1E50AF07408120E63124E972428F5A0
:1045F30082E439F583E50CF0A3E50D12472F12474A
:10460300021253B0125D1CEE1246A9C0E0E8243337
:10461300F582E439F583D0E0F0EE241B125337C062
:10462300E07408120E631246DED0E0F0EE241A1294
:104633005337C0E07408120E631246DA2432F5824F
:10464300E438F583D0E01247271246CE120B43120B
:104653006432127220740B120E631246DA242F1284
:1046630076FC120B5AEE2415125337544060129005
:104673001709124EF4600AAA21AB22125B1312240B
:104683003BAA21AB22121CE0740C120E63E0F90268
:1046930049C9E82420F582E439F58322EE2419F58B
:1046A30082E43FF58322126441E022E82412F5827A
:1046B300E439F58322EE2418F582E43FF58322548E
:1046C30080F8A3E05401F974806822F508A3E0F5AB
:1046D30009750A007808221246EE221246EE2434A7
:1046E300F582E438F58322A3A3A3A31246F222E0C2
:1046F300F8A3E0C8221246EE12402E38F58322FAC0
:10470300A3E0FBE8242AF582E439F583EAF0A3EB7E
:1047130022A3A3A3A3123C2CEE22124E9B124E7B88
:1047230039F58322F0EE24131253B822F0EE240D50
:104733001253B822E0FC8A828B83E02CFCA3E03482
:1047430000FD8A828B83ECF0A3EDF022F0A3E4F06A
:1047530022F085218285228322F0EE24151253B89C
:1047630022E0D2E3F012476C228E828F83123C3018
:10477300852182852283E8F0A3E9F022E8F0A3E90A
:10478300125E6FE02274F71206108A828B83A3E015
:10479300640170047E6380027E648A828B83E0609E
:1047A3000879051247BC24F3FE901725E06007F94A
:1047B3001247BC24F2FE0242A9121D88E9F8EEC397
:1047C300982274F612061074FE120C098521828554
:1047D3002283125D29E9FEECFAEDFB90052F124EC0
:1047E300F46032A821A922880889097808120B47A6
:1047F3007D01740E120E63E0FCEEF990052F125C3E
:10480300FD12243B7402120B5AEA4B6004790080B8
:104813000679B2800279B6023C1C74F7120610E9DD
:10482300FE9016DF124EF4601F7409120E63E0F55A
:10483300087808120B4BEEF99016DF125CFD122478
:104843003B7401120B5A800279B60242CD74F712FF
:1048530006108908ECFEEDFF79B5E508245E6020BB
:1048630014600624F86034803D9005311248AC6032
:1048730035126A3D12243B8E828F83125D29802478
:104883009016E1127220EC4D601CEEFCEFFD9016C9
:10489300E1125CFD12243BE9F9800B9016DD12480E
:1048A300B21214D079000242CD1248E6EA4B22122A
:1048B3007224EEFAEFFB2274F7120610E9FE79B5C3
:1048C30074AB6E700B9016DD1248E21214D07900AF
:1048D3000242CD8E828F83A3A3A3A3A3A3A3A31278
:1048E30048E6221248EA22E0FAA3E0FB2274F1121E
:1048F3000610EAFEEBFF8C0A8D0B75080190172D4D
:10490300E06E7003A3E06F700C1249BDAA0AAB0BF3
:104913001214D0805E121EC0EE6A7002EF6B700933
:10492300AA0AAB0B121EC6804AAC0AAD0BEEFAEF15
:10493300FB121A16E9F508901958E070361223464F
:10494300E97030E508702C9016FDE06E7003A3E06B
:104953006F7020EE4F601C750CF5750D16750E000B
:10496300780C120B437C087D00AA0AAB0B1269E991
:10497300120B5AA90802731C74F2120610EAFEEB1A
:10498300FF8C088D09750A011249BDEEFAEFFB127F
:1049930014CAE96401701190172D123C288508820E
:1049A3008509831269C2800EAC08AD09EEFAEFFBEC
:1049B300121A1CE9F50AA90A8011121EB48A0C8B7B
:1049C3000DAC0CAD0D22740D120B5A7F0602089527
:1049D30074F6120610EAFEEBFF7A0D7B001213CE7B
:1049E300EA4B6062EE24241266C6F0EE24251266BA
:1049F300C6A3124A8B1266CCA3A312645F124A6643
:104A0300F0EE124A4C124A7BE8F0A3E9124AA212D2
:104A13004A731269C2EE124A55126522A3A3A3A3D5
:104A2300F0EE2433125337C0E0124A5ED0E0126234
:104A330051124A73A3A3A3E8F0A3E9124A9AC0E070
:104A4300125014D0E0F0023C21242AF582E43FF511
:104A53008322242EF582E43FF58322EA12548D3B10
:104A6300F58322124A6A22E08A828B83A3A3A322BC
:104A7300126581A3A3A3A322124A7F22123C308A88
:104A8300828B83A3A3A3A322F0124A9022EE2426AF
:104A9300F582E43FF58322F0EE24321253B822F07C
:104AA300EE242C1253B82274F412061074FE120C66
:104AB30009ECFEEDFFEC241612533764057010EC7D
:104AC3002406FCE43FFD121C68E97003024B56AC5C
:104AD30021AD2212677B1218F08521828522831271
:104AE3004EF4606B8E828F83E064017058E875F03A
:104AF30009A4F8AAF075F009E9A42AF9745628F86C
:104B0300740439F9E8FAE9FB8882F5837808120E10
:104B13000CEE124BF8120DA04027852182852283CB
:104B2300124718125345124B5B7808120E0C9081F2
:104B33004C7808120D108A828B837808120DFD8041
:104B43000A79A28010EE240F1269BC7900800679DD
:104B5300A1800279C8022D94124779EE12644D2286
:104B630074F21206108A0C8B0DECFEEDFFEC12535F
:104B730045E4F0A3F090817C7808120E0CEC124B04
:104B8300F8120C1F6067EC240E12533E703478B396
:104B9300901724E07028901756E064017020EC24ED
:104BA30011125337F9121D708B09A909EE124E77B2
:104BB3003F125D27EA4960047800800278A18808E3
:104BC300802EE060046402700A121C7AE9F5087012
:104BD30007801DE064037010EEFCEFFDAA0CAB0D23
:104BE300121914E9F50880087508A180037508A354
:104BF300A9080249CE12644D78082274F0120610F7
:104C030074F5120C09EAFEEBFFEA240AFCE43F8C7C
:104C130082F5831276BD124E817403120BEB8A82E6
:104C23008B83125B1DE97003024CE77401120BEBDB
:104C33007403120BE31218F07401120E63124EF494
:104C43007003024CE7E875F009A4F8AAF075F009BF
:104C5300E9A42AF9745228FC740439FDE508240EEA
:104C6300125F6EE4F004120E63123C28E508124E44
:104C73007735091269C08C828D83120E40E50824B2
:104C830012125F6E120E4C90814C7808120E0C8C2F
:104C9300828D837808120CD78C828D83780C120E48
:104CA3000C90820C7808120E0C780C79081205A16E
:104CB300E5084509450A450B702A7401120E631273
:104CC3004E9775F009A4F8AAF075F009E9A42AF93A
:104CD300745A28F582740439F5837401F07A007BE1
:104CE30008124EA48E828F83A3A3A3A3A3A3A3A37B
:104CF300A3A3E02406FCA3E03400FD8E828F83127D
:104D03005B1D12623F603EEE240A124E6912471D7C
:104D1300746812474FE8124E6339F5837402F090BA
:104D2300170F120E408C828D83125D161259083CA8
:104D3300F583120E4C90814C7808120E0C90170FCD
:104D43007808120CD7124EDF705D9016DD124E8F6D
:104D5300A3A3A3A3A3A3A3A3A3A312593E1214CA59
:104D6300E970101258FC9016DD12590E700512628C
:104D73003F60348E828F83A3A3A3A3A3A3A3A3A380
:104D8300A3124E8F1248E212191AE960118E828F14
:104D930083A3A3A3A3A3A3124ECBE4F0A3F08E8219
:104DA3008F83124EB1E4F0124EDF6003024E5E8E2B
:104DB300828F83A3A3A3A3A3A31276B9901724E09E
:104DC3006003024E53901756E064016003024E5392
:104DD300750A3A750B00780A120B477402120BDB43
:104DE300880A890B780A120B47126CB8120B5AE91E
:104DF300705BE508240E125F6E7401124EF9C0E079
:104E0300E5082411125F6ED0E0F0E508240F125F6D
:104E13006E743A12474F90170B120E40E508241296
:104E2300125F6E120E4C90814C7808120E0C901784
:104E33000B7808120CD790814C7808120E0C90173F
:104E43000B7808120C1F7008124EA08003124E81BB
:104E5300124EDF70061257FF74A1F0740B0265F156
:104E6300240EF582E422F8E43FF9E8FCE9FD8882A8
:104E7300F58322EA124E7B22240FF582E422E50811
:104E8300124E7B3509F583E4F0A3F0221272248ECF
:104E9300828F8322124E9B22123C30E8227A007BBF
:104EA300029015B5E0F912137A228A828B83A3A3A9
:104EB300A3A3A3A3A3A3A3A3124EBF221246F22428
:104EC3000EF582E438F58322A3A3A3A3124ED322C3
:104ED3001246F2240FF582E438F583228E828F8303
:104EE300A3A3A3A3A3A31246EA240FF582E438F5F0
:104EF30083124E9B4922124EFD22F0852182852288
:104F030083E02274F6120610EAFEEBFF7A237B009D
:104F13001213CEEE240AF508E43FF5098508821240
:104F23005D277C237D00790012132685088285097D
:104F330083124EF47003024FC7EEFAEFFB121C8686
:104F4300124EDF60748E828F83124FFA64018E8259
:104F53008F83A3A3A3A3A3A37007124FF0740E80A0
:104F630021124EF4701012623F700B8E828F83A356
:104F7300A3E0A2E05007124FE6740D8005124FE63E
:104F83007405126251540364017007124FCE740505
:104F9300800B901725E0C0E0124FCED0E0125009ED
:104FA300F58388821253648508828509831246DA61
:104FB300125CBB38F583E9800E850882850983126C
:104FC3005DA08003125CE3F0023C218E828F83A3F9
:104FD300A3A3A3A3A3A3A3A3A3124FE022E0125D61
:104FE30002A3228E828F83A3A3A3A3A3A31246EAC1
:104FF300125CC138F58322A3A3A3A3A3A3A3A3A3F2
:10500300A3124EBFE02212500D22126790F8A3E0C4
:1050130022EA12501C3BF58322240CF582E422740D
:10502300F112061074E4120C098A0C8B0D8C088D96
:10503300097A237B001213CE8A0A8B0BAE0AAF0BBD
:10504300EA4F700302531F125CC7E508241512537D
:1050530050687003A3E0698E828F837004740280AA
:10506300027401F0E508240DF8E43509F98882F5A6
:1050730083E0FAC3E49AFA95E0FB12534C2AFAA3AD
:10508300E03BFB8E828F83A3A3A3A31259258E82B9
:105093008F83A3A3F0EE2420F582E43FF583E4F0AD
:1050A300EE2421F582E43FF583E4F0EEFAEFFB1200
:1050B3001D3A85088285098312536B70098E828F8E
:1050C30083A374058006901725125359F0EE241715
:1050D300F50AE43FF50B8E828F83125364E9850A48
:1050E30082850B83F0EE2416F8E43FF9E508240EDD
:1050F300FAE43509FB88828983124737E5082410CF
:10510300FAE43509FB850A82850B83E0FC888289F2
:1051130083E0F88A828B83E0C398C39CF81253A57B
:10512300F0EEFCEFFDAA0CAB0D121C80E9F50B8E23
:10513300828F83E0640270061258FC125329E50B38
:105143006003025316750C00750D00901958E06446
:10515300016005E06402703F12533B6008EE2421B6
:1051630012533E70328E828F83A3A3A3125CE91283
:105173005371EE241612533712539AFAE439FB1281
:105183003A29EA4B601112654B120B4312537FAA63
:105193000C1269E9120B5AEEFAEFFB121D46E9F500
:1051A3000B901958E064016008E064026003025345
:1051B30009E97003025309E50C450D700302531608
:1051C3008003850E0B12533B600BEE242112533EDA
:1051D300600302530F850B0E850C08850D09750AB4
:1051E300007808120B4312537F8E828F83A3A3A3ED
:1051F300A3127702120B5AEE2420125337600D12BA
:105203005344746812474FEE24208015EE24211274
:10521300533760151253447403F0A37401F0EE2462
:1052230021F582E43FF583E4F0EEFAEFFB121D462D
:10523300E9F50B70907C137D0079007409120BE380
:10524300121326741A120E6374011253B064687039
:1052530002A3E0704F8E828F83124ECBE064056011
:10526300030251C57C0879FF8E828F83A3A3A3A376
:10527300E0242A1259411213B0E970030251C57C8C
:10528300087D0079FF7401120BE3121326740112D7
:105293000BEB7A007B0079AB121C627419120E635C
:1052A30074FC8015125344E064037004A3E06401AA
:1052B30070087419120E6374FFF0E4F508F50978A9
:1052C30008120B477402120BEB7413120E63AA82BB
:1052D300AB83125E26120B5A852182852283E060FE
:1052E3002B7409120BDB880889097808120B4775A0
:1052F30008137509007808120B477C007D001266BD
:1053030099120B5A8006E50C450D6007AA0CAB0DEC
:105313001213D4EEFAEFFB1213D48003750B10A90A
:105323000B741C027319EE2406FAE43FFB1214D02B
:1053330022EE240C1253B822EE24201253B8640137
:1053430022EE124E7B3FF58322E508240EF582E41C
:105353003509F583E02212535EA322E08E828F8308
:1053630022A3E0F9121D8822E054036401221253A0
:105373007522E0FAE82AF8E43400F9228E828F835A
:10538300A3A3A3125CED125375EE24161253B812A5
:10539300539AFCE439FD22FAE82AF8E439F9E824BF
:1053A30004221253A922126260A3A3A322F0125370
:1053B300B522EE240FF582E43FF583E02279010262
:1053C3000B0A74F4120610EAFEEBFF8A82F583A33C
:1053D300A3A3A3A3A3A3A31246DA2424F582E43848
:1053E300F58312536B702E8A828B83124FFA7025CA
:1053F300125493E06405701D125493A3E0F87401F2
:105403006860057406687007124EAD740280051259
:105413004EAD7403F0EA240A125D94125CFDE4F0CD
:10542300EA2408F8E43F122D832431F582E43AF5A7
:1054330083E0C0E0126A34A3A3D0E01254B2CA24BA
:105443002EF582E43AF583E0C0E0126A34A3A3A305
:10545300D0E01259D8C812548D38123C26126A343F
:105463001254A78A0A8B0BAC0AAD0B8508828509F7
:105473008312593E1214D08508828509831248E2AB
:10548300121D46125D8FF0022D99240BF582E42242
:105493008A828B83A3A3A3A3A3A3A3A3126226F548
:1054A30083888222A3A3A3A3124779121EB42212D4
:1054B300591AFAA3E0220253C0C082C0839016FF98
:1054C300748CF0A3741CF09017017498F0A3741CEF
:1054D300F0901703749EF0A3741CF0901705749258
:1054E300F0A3741CF00257C374F4120610EA2408E4
:1054F300FEE43BFF8E82F583124E97125CD3E0F5F8
:105503000874035508F509125939F8A3E08882F5A0
:1055130083E508F0A3A882A983E5096009740265FD
:105523000960030255D8740C5508FC600A74086CB2
:10553300600574046C7026740265097006E508A2A0
:10554300E4401A8A828B83A3A3A3A3A3A3A3A312D6
:1055530056DE12642C3D125679A308A983740C6C91
:10556300701C1256DA24281256C62428F582E43D0C
:10557300F583A312605AF0E82402F850010974027B
:1055830065097006E508A2E4404B1256DA242A1294
:1055930056C6242AF582E43DF583A3125688125693
:1055A300E412605A1256E4A3125680E82404F85019
:1055B3000109EC600F74086C600A740C6C6005746C
:1055C300046C7011125D0A2426F582E43C125679AC
:1055D300A3A882A9838A828B83A3A3A3A3A3A3A340
:1055E300A31256A854037014E508A2E1400E125DFD
:1055F3000A1256733CF583E05480600812568E12EB
:10560300567B80199016D3E0C0E012568ED0E0127C
:1056130056BB888289831256BB0412591FA3A882E2
:10562300A983E508A2E750458E828F831256A88886
:105633008289831256C11256AD54036030125D0A3B
:105643002434F582E43C126058F0E508A2E1501DD1
:105653008A828B83A3A3A3A3A3A3A3A3122D88242A
:1056630035F582E43A126058A3F0E82403022D9939
:10567300241EF582E422F583125688F022125688FE
:10568300A3A3A3F022E088828983228A828B83A347
:10569300A3A3A3A3A3A3A3E0FCA3E0CC2432F5829A
:1056A300E43CF58322E01256AD22FCA3E0CC242592
:1056B300F582E43CF583E022F09016D3E0221262F7
:1056C3005CE022F582E43DF5831256881256D3221C
:1056D3001262601256DE228E828F83E0FDA3E0CD3C
:1056E30022A31256D3242CF582E43DF58322C082F3
:1056F300C0838A828B831257B3FC74035CF98A825A
:105703008B83A3A37401F0E960057402697061746B
:105713000C5CF8600A74086860057404687013749C
:1057230002697005ECA2E440098A828B83A3A37407
:1057330002F0740C68700A8A828B83A3A3E02402AC
:10574300F07402697005ECA2E440258A828B83A37E
:10575300A3E02404F0E8600F740868600A740C681E
:10576300600574046870098A828B83A3A3E004F044
:10577300ECA2E7502A8A828B83A3A3E0041257B9D1
:10578300123292E0540360178A828B83A3A3E0044E
:10579300F0ECA2E150098A828B83A3A3E004F08A90
:1057A300828B83A3A3E004F0801685218285228364
:1057B300124FE0A3E022F08A828B83E022120B5A7D
:1057C300D083D082020B0AC082C0838A828B83A3D8
:1057D300A3A3A3A3A3A3A3A3A3124EF460098A8242
:1057E3008B83A3A31257EC80D7A3A3A3A3A3A3A341
:1057F300A31257F8221248EA1213D4221258032292
:10580300EE240CF582E43FF5832274F6120610743D
:10581300F4120C09125948FCA3E0F5838C82A3E02F
:10582300C0E07402120E63D0E01259F61259DF740D
:1058330004120E631269C27402120E63E0640470F0
:105843001412595E24121259417406120E6312592E
:1058530025241A8035E064016005E064067039EAA6
:105863002402F8E43B122D831259083AF583E0C071
:10587300E07403120E63D0E0125916241312594137
:105883007406120E63125925241B1259DF74081271
:105893000E63E8F0A3E9802B7406120E63E4F0A311
:1058A30012595924121259417408120E63125932B3
:1058B300C8241AF582E438F583E0C0E0740A120EB6
:1058C30063D0E0F07406120E63124EF4601F740688
:1058D300120E631248E2121A0AE96401700F125899
:1058E300FC7406120E6312590E64017007AA21ABF1
:1058F30022121D22740C023C1E121EB48A088B094C
:10590300AC08AD09222412F582E4221248E61214EF
:10591300CAE92212591A2212591FE022F0888289F9
:10592300832212592922EAF0A3EB12591FE0221213
:105933005929F8A3E0221262BAE022E02406FAA36E
:10594300E03400FB228A828B83A3A3A3A3A3A31225
:1059530069FDE8F0A3E9F012595E22125A07E0222A
:10596300C082C08374FD120C0912598D12328CC08F
:10597300E07402120E63D0E0125987121D287403DB
:105983000257C0E4F0AA21AB22228A828B83A3A30D
:10599300A3A3A3A31247708A828B83A3A3E022C08D
:1059A30082C08374FA120C091269EF1259FCC0E029
:1059B3007402120E63D0E01259D8F5838882A3A330
:1059C300E0C0E07405120E63D0E0125987121D2E59
:1059D30074060257C012591AF8A3E022F8A3E03460
:1059E30000F922A3A3125A5A22E02402F8A3E034B6
:1059F30000F92212591A240222124779125A071265
:105A03005A13E022EA2402F8E43BF98882F5832260
:105A1300E0FAA3E0F5838A82A322E50E123A8535E4
:105A23000FF583E0FC7D0022C082C083125A4E60D2
:105A33000A24FC600B24F9600C800D121CBC800846
:105A4300121CC28003121CC80257C38A828B8312A2
:105A53005A5824FB22A3A3125D01E02274F6120616
:105A63001074E4120C09EAFEEBFF7401120BEB8ACB
:105A7300828B83A3A3A3A3A3A3125B1D7409120B9D
:105A8300DB880889097808120B477402120BEB7440
:105A930003120BE3125E26120B5A852182852283A1
:105AA300E06036741A120E63E060046401702A9099
:105AB30016B6E070248E828F83A3A3A3A3A3E07002
:105AC300188E828F83125B17603F8E828F83A3A30E
:105AD300A3125B13E0640760308E828F83A3A3A3BA
:105AE300A3A3A3A3A3E070148E828F831259E66449
:105AF3000560097A347B01121788800DEEFAEFFBFB
:105B0300901707125CFD12243B741C023C1EEEF935
:105B1300125D0422125A586406221248E6121C68C7
:105B23002274F412061074FA120C09EAFEEBFF1247
:105B330032982408F582E43B125D2F240AF582E4AF
